{
  "address": "0x951892f948a8bfa84cf4a4e0e39b5e77b05a0f1a",
  "abi": [
    {
      "inputs": [
        {
          "internalType": "address",
          "name": "_collateralToken",
          "type": "address"
        },
        {
          "internalType": "address",
          "name": "_borrowToken",
          "type": "address"
        }
      ],
      "stateMutability": "nonpayable",
      "type": "constructor"
    },
    {
      "inputs": [
        {
          "internalType": "address",
          "name": "target",
          "type": "address"
        }
      ],
      "name": "AddressEmptyCode",
      "type": "error"
    },
    {
      "inputs": [
        {
          "internalType": "address",
          "name": "account",
          "type": "address"
        }
      ],
      "name": "AddressInsufficientBalance",
      "type": "error"
    },
    {
      "inputs": [],
      "name": "FailedInnerCall",
      "type": "error"
    },
    {
      "inputs": [
        {
          "internalType": "address",
          "name": "token",
          "type": "address"
        }
      ],
      "name": "SafeERC20FailedOperation",
      "type": "error"
    },
    {
      "anonymous": false,
      "inputs": [
        {
          "indexed": true,
          "internalType": "address",
          "name": "user",
          "type": "address"
        },
        {
          "indexed": false,
          "internalType": "uint256",
          "name": "amount",
          "type": "uint256"
        }
      ],
      "name": "Borrow",
      "type": "event"
    },
    {
      "anonymous": false,
      "inputs": [
        {
          "indexed": true,
          "internalType": "address",
          "name": "user",
          "type": "address"
        },
        {
          "indexed": false,
          "internalType": "uint256",
          "name": "amount",
          "type": "uint256"
        }
      ],
      "name": "Repay",
      "type": "event"
    },
    {
      "anonymous": false,
      "inputs": [
        {
          "indexed": true,
          "internalType": "address",
          "name": "user",
          "type": "address"
        },
        {
          "indexed": false,
          "internalType": "uint256",
          "name": "amount",
          "type": "uint256"
        }
      ],
      "name": "Supply",
      "type": "event"
    },
    {
      "anonymous": false,
      "inputs": [
        {
          "indexed": true,
          "internalType": "address",
          "name": "user",
          "type": "address"
        },
        {
          "indexed": false,
          "internalType": "uint256",
          "name": "amount",
          "type": "uint256"
        }
      ],
      "name": "Withdraw",
      "type": "event"
    },
    {
      "inputs": [],
      "name": "LIQUIDATION_THRESHOLD",
      "outputs": [
        {
          "internalType": "uint256",
          "name": "",
          "type": "uint256"
        }
      ],
      "stateMutability": "view",
      "type": "function"
    },
    {
      "inputs": [],
      "name": "LTV",
      "outputs": [
        {
          "internalType": "uint256",
          "name": "",
          "type": "uint256"
        }
      ],
      "stateMutability": "view",
      "type": "function"
    },
    {
      "inputs": [
        {
          "internalType": "uint256",
          "name": "amount",
          "type": "uint256"
        }
      ],
      "name": "borrow",
      "outputs": [],
      "stateMutability": "nonpayable",
      "type": "function"
    },
    {
      "inputs": [],
      "name": "borrowToken",
      "outputs": [
        {
          "internalType": "contract IERC20",
          "name": "",
          "type": "address"
        }
      ],
      "stateMutability": "view",
      "type": "function"
    },
    {
      "inputs": [],
      "name": "collateralToken",
      "outputs": [
        {
          "internalType": "contract IERC20",
          "name": "",
          "type": "address"
        }
      ],
      "stateMutability": "view",
      "type": "function"
    },
    {
      "inputs": [
        {
          "internalType": "address",
          "name": "userAddress",
          "type": "address"
        }
      ],
      "name": "getHealthFactor",
      "outputs": [
        {
          "internalType": "uint256",
          "name": "",
          "type": "uint256"
        }
      ],
      "stateMutability": "view",
      "type": "function"
    },
    {
      "inputs": [
        {
          "internalType": "address",
          "name": "userAddress",
          "type": "address"
        }
      ],
      "name": "getUserAccountData",
      "outputs": [
        {
          "internalType": "uint256",
          "name": "collateral",
          "type": "uint256"
        },
        {
          "internalType": "uint256",
          "name": "debt",
          "type": "uint256"
        },
        {
          "internalType": "uint256",
          "name": "healthFactor",
          "type": "uint256"
        }
      ],
      "stateMutability": "view",
      "type": "function"
    },
    {
      "inputs": [
        {
          "internalType": "address",
          "name": "userAddress",
          "type": "address"
        }
      ],
      "name": "isLiquidatable",
      "outputs": [
        {
          "internalType": "bool",
          "name": "",
          "type": "bool"
        }
      ],
      "stateMutability": "view",
      "type": "function"
    },
    {
      "inputs": [
        {
          "internalType": "uint256",
          "name": "amount",
          "type": "uint256"
        }
      ],
      "name": "repay",
      "outputs": [],
      "stateMutability": "nonpayable",
      "type": "function"
    },
    {
      "inputs": [],
      "name": "reserve",
      "outputs": [
        {
          "internalType": "uint256",
          "name": "totalDeposits",
          "type": "uint256"
        },
        {
          "internalType": "uint256",
          "name": "totalBorrows",
          "type": "uint256"
        },
        {
          "internalType": "bool",
          "name": "isActive",
          "type": "bool"
        }
      ],
      "stateMutability": "view",
      "type": "function"
    },
    {
      "inputs": [
        {
          "internalType": "uint256",
          "name": "amount",
          "type": "uint256"
        }
      ],
      "name": "supply",
      "outputs": [],
      "stateMutability": "nonpayable",
      "type": "function"
    },
    {
      "inputs": [
        {
          "internalType": "address",
          "name": "",
          "type": "address"
        }
      ],
      "name": "userPositions",
      "outputs": [
        {
          "internalType": "uint256",
          "name": "collateralAmount",
          "type": "uint256"
        },
        {
          "internalType": "uint256",
          "name": "borrowedAmount",
          "type": "uint256"
        }
      ],
      "stateMutability": "view",
      "type": "function"
    },
    {
      "inputs": [
        {
          "internalType": "uint256",
          "name": "amount",
          "type": "uint256"
        }
      ],
      "name": "withdraw",
      "outputs": [],
      "stateMutability": "nonpayable",
      "type": "function"
    }
  ],
  "contractName": "LendingPool",
  "sourceName": "contracts/LendingPool.sol",
  "bytecode": "0x6080604052348015600e575f5ffd5b50604051611019380380611019833981016040819052602b916081565b5f80546001600160a01b039384166001600160a01b031991821617909155600180549290931691161781556004805460ff1916909117905560ad565b80516001600160a01b0381168114607c575f5ffd5b919050565b5f5f604083850312156091575f5ffd5b6098836067565b915060a4602084016067565b90509250929050565b610f5f806100ba5f395ff3fe608060405234801561000f575f5ffd5b50600436106100cb575f3560e01c806362965d8e11610088578063bf92857c11610063578063bf92857c146101c8578063c5ebeaec146101f6578063cd3293de14610209578063fe6bcd7c1461023b575f5ffd5b806362965d8e1461019857806390a8ae9b146101ae578063b2016bd4146101b6575f5ffd5b8063042e02cf146100cf5780632e1a7d4d146100f7578063354030231461010c578063371fd8e61461011f578063456dc17a14610132578063613cf4201461015d575b5f5ffd5b6100e26100dd366004610e08565b61024e565b60405190151581526020015b60405180910390f35b61010a610105366004610e2e565b610268565b005b61010a61011a366004610e2e565b6103cb565b61010a61012d366004610e2e565b610624565b600154610145906001600160a01b031681565b6040516001600160a01b0390911681526020016100ee565b61018361016b366004610e08565b60056020525f90815260409020805460019091015482565b604080519283526020830191909152016100ee565b6101a0604b81565b6040519081526020016100ee565b6101a0605081565b5f54610145906001600160a01b031681565b6101db6101d6366004610e08565b61088b565b604080519384526020840192909252908201526060016100ee565b61010a610204366004610e2e565b6108d2565b60025460035460045461021e92919060ff1683565b6040805193845260208401929092521515908201526060016100ee565b6101a0610249366004610e08565b610b29565b5f670de0b6b3a764000061026183610b29565b1092915050565b335f9081526005602052604090208161029c5760405162461bcd60e51b815260040161029390610e45565b60405180910390fd5b80548211156102e75760405162461bcd60e51b8152602060048201526017602482015276125394d551919250d251539517d0d3d313105511549053604a1b6044820152606401610293565b80545f906102f6908490610e81565b9050610306818360010154610baa565b61034a5760405162461bcd60e51b81526020600482015260156024820152744845414c54485f464143544f525f544f4f5f4c4f5760581b6044820152606401610293565b82825f015f82825461035c9190610e81565b9091555050600280548491905f90610375908490610e81565b90915550505f54610390906001600160a01b03163385610c02565b60405183815233907f884edad9ce6fa2440d8a54cc123490eb96d2768479d49ff9c7366125a9424364906020015b60405180910390a2505050565b60045460ff1661040d5760405162461bcd60e51b815260206004820152600d60248201526c504f4f4c5f494e41435449564560981b6044820152606401610293565b5f811161042c5760405162461bcd60e51b815260040161029390610e45565b5f546040516370a0823160e01b815233600482015282916001600160a01b0316906370a0823190602401602060405180830381865afa158015610471573d5f5f3e3d5ffd5b505050506040513d601f19601f820116820180604052508101906104959190610e94565b10156104e35760405162461bcd60e51b815260206004820152601a60248201527f494e53554646494349454e545f544f4b454e5f42414c414e43450000000000006044820152606401610293565b5f54604051636eb1769f60e11b815233600482015230602482015282916001600160a01b03169063dd62ed3e90604401602060405180830381865afa15801561052e573d5f5f3e3d5ffd5b505050506040513d601f19601f820116820180604052508101906105529190610e94565b10156105995760405162461bcd60e51b8152602060048201526016602482015275494e53554646494349454e545f414c4c4f57414e434560501b6044820152606401610293565b5f546105b0906001600160a01b0316333084610c66565b335f90815260056020526040812080548392906105ce908490610eab565b9091555050600280548291905f906105e7908490610eab565b909155505060405181815233907fadacf827efe383160192c092d8658471945c074229a9746679b5e2b74adff1919060200160405180910390a250565b335f9081526005602052604090208161064f5760405162461bcd60e51b815260040161029390610e45565b818160010154101561069a5760405162461bcd60e51b81526020600482015260146024820152731253959053125117d49154105657d05353d5539560621b6044820152606401610293565b6001546040516370a0823160e01b815233600482015283916001600160a01b0316906370a0823190602401602060405180830381865afa1580156106e0573d5f5f3e3d5ffd5b505050506040513d601f19601f820116820180604052508101906107049190610e94565b10156107525760405162461bcd60e51b815260206004820152601a60248201527f494e53554646494349454e545f544f4b454e5f42414c414e43450000000000006044820152606401610293565b600154604051636eb1769f60e11b815233600482015230602482015283916001600160a01b03169063dd62ed3e90604401602060405180830381865afa15801561079e573d5f5f3e3d5ffd5b505050506040513d601f19601f820116820180604052508101906107c29190610e94565b10156108095760405162461bcd60e51b8152602060048201526016602482015275494e53554646494349454e545f414c4c4f57414e434560501b6044820152606401610293565b600154610821906001600160a01b0316333085610c66565b81816001015f8282546108349190610e81565b9091555050600380548391905f9061084d908490610e81565b909155505060405182815233907f5c16de4f8b59bd9caf0f49a545f25819a895ed223294290b408242e72a5942319060200160405180910390a25050565b6001600160a01b0381165f9081526005602090815260408083208151808301909252805480835260019091015492820183905292906108c985610b29565b93959294505050565b60045460ff166109145760405162461bcd60e51b815260206004820152600d60248201526c504f4f4c5f494e41435449564560981b6044820152606401610293565b5f81116109335760405162461bcd60e51b815260040161029390610e45565b335f908152600560205260409020805461097f5760405162461bcd60e51b815260206004820152600d60248201526c1393d7d0d3d313105511549053609a1b6044820152606401610293565b5f6064604b835f01546109929190610ebe565b61099c9190610ed5565b9050808383600101546109af9190610eab565b11156109f75760405162461bcd60e51b8152602060048201526017602482015276125394d551919250d251539517d0d3d313105511549053604a1b6044820152606401610293565b6001546040516370a0823160e01b815230600482015284916001600160a01b0316906370a0823190602401602060405180830381865afa158015610a3d573d5f5f3e3d5ffd5b505050506040513d601f19601f82011682018060405250810190610a619190610e94565b1015610aaf5760405162461bcd60e51b815260206004820152601b60248201527f494e53554646494349454e545f504f4f4c5f4c495155494449545900000000006044820152606401610293565b82826001015f828254610ac29190610eab565b9091555050600380548491905f90610adb908490610eab565b9091555050600154610af7906001600160a01b03163385610c02565b60405183815233907fcbc04eca7e9da35cb1393a6135a199ca52e450d5e9251cbd99f7847d33a36750906020016103be565b6001600160a01b0381165f90815260056020908152604080832081518083019092528054825260010154918101829052908203610b6957505f1992915050565b6020810151610b79906064610ebe565b8151610b8790605090610ebe565b610b9990670de0b6b3a7640000610ebe565b610ba39190610ed5565b9392505050565b5f815f03610bba57506001610bfc565b5f610bc6836064610ebe565b610bd1605086610ebe565b610be390670de0b6b3a7640000610ebe565b610bed9190610ed5565b670de0b6b3a764000011159150505b92915050565b6040516001600160a01b03838116602483015260448201839052610c6191859182169063a9059cbb906064015b604051602081830303815290604052915060e01b6020820180516001600160e01b038381831617835250505050610ca5565b505050565b6040516001600160a01b038481166024830152838116604483015260648201839052610c9f9186918216906323b872dd90608401610c2f565b50505050565b5f610cb96001600160a01b03841683610d06565b905080515f14158015610cdd575080806020019051810190610cdb9190610ef4565b155b15610c6157604051635274afe760e01b81526001600160a01b0384166004820152602401610293565b6060610ba383835f845f5f856001600160a01b03168486604051610d2a9190610f13565b5f6040518083038185875af1925050503d805f8114610d64576040519150601f19603f3d011682016040523d82523d5f602084013e610d69565b606091505b5091509150610d79868383610d83565b9695505050505050565b606082610d9857610d9382610ddf565b610ba3565b8151158015610daf57506001600160a01b0384163b155b15610dd857604051639996b31560e01b81526001600160a01b0385166004820152602401610293565b5080610ba3565b805115610def5780518082602001fd5b604051630a12f52160e11b815260040160405180910390fd5b5f60208284031215610e18575f5ffd5b81356001600160a01b0381168114610ba3575f5ffd5b5f60208284031215610e3e575f5ffd5b5035919050565b6020808252600e908201526d1253959053125117d05353d5539560921b604082015260600190565b634e487b7160e01b5f52601160045260245ffd5b81810381811115610bfc57610bfc610e6d565b5f60208284031215610ea4575f5ffd5b5051919050565b80820180821115610bfc57610bfc610e6d565b8082028115828204841417610bfc57610bfc610e6d565b5f82610eef57634e487b7160e01b5f52601260045260245ffd5b500490565b5f60208284031215610f04575f5ffd5b81518015158114610ba3575f5ffd5b5f82518060208501845e5f92019182525091905056fea2646970667358221220b2869409811bdf7e768ecd55286caf9ea055eb66c2d8a09b792b118a8126ce3c64736f6c634300081e0033",
  "linkReferences": {},
  "deployedLinkReferences": {},
  "immutableReferences": {},
  "inputSourceName": "project/contracts/LendingPool.sol",
  "devdoc": {
    "errors": {
      "AddressEmptyCode(address)": [
        {
          "details": "There's no code at `target` (it is not a contract)."
        }
      ],
      "AddressInsufficientBalance(address)": [
        {
          "details": "The ETH balance of the account is not enough to perform the operation."
        }
      ],
      "FailedInnerCall()": [
        {
          "details": "A call to an address target failed. The target may have reverted."
        }
      ],
      "SafeERC20FailedOperation(address)": [
        {
          "details": "An operation with an ERC20 token failed."
        }
      ]
    },
    "kind": "dev",
    "methods": {},
    "version": 1
  },
  "evm": {
    "gasEstimates": {
      "creation": {
        "codeDepositCost": "787000",
        "executionCost": "infinite",
        "totalCost": "infinite"
      },
      "external": {
        "LIQUIDATION_THRESHOLD()": "239",
        "LTV()": "217",
        "borrow(uint256)": "infinite",
        "borrowToken()": "2425",
        "collateralToken()": "2402",
        "getHealthFactor(address)": "infinite",
        "getUserAccountData(address)": "infinite",
        "isLiquidatable(address)": "infinite",
        "repay(uint256)": "infinite",
        "reserve()": "6629",
        "supply(uint256)": "infinite",
        "userPositions(address)": "4731",
        "withdraw(uint256)": "infinite"
      },
      "internal": {
        "_isHealthy(uint256,uint256)": "infinite"
      }
    }
  },
  "storageLayout": {
    "storage": [
      {
        "astId": 679,
        "contract": "project/contracts/LendingPool.sol:LendingPool",
        "label": "collateralToken",
        "offset": 0,
        "slot": "0",
        "type": "t_contract(IERC20)77"
      },
      {
        "astId": 682,
        "contract": "project/contracts/LendingPool.sol:LendingPool",
        "label": "borrowToken",
        "offset": 0,
        "slot": "1",
        "type": "t_contract(IERC20)77"
      },
      {
        "astId": 691,
        "contract": "project/contracts/LendingPool.sol:LendingPool",
        "label": "reserve",
        "offset": 0,
        "slot": "2",
        "type": "t_struct(ReserveData)671_storage"
      },
      {
        "astId": 696,
        "contract": "project/contracts/LendingPool.sol:LendingPool",
        "label": "userPositions",
        "offset": 0,
        "slot": "5",
        "type": "t_mapping(t_address,t_struct(UserPosition)676_storage)"
      }
    ],
    "types": {
      "t_address": {
        "encoding": "inplace",
        "label": "address",
        "numberOfBytes": "20"
      },
      "t_bool": {
        "encoding": "inplace",
        "label": "bool",
        "numberOfBytes": "1"
      },
      "t_contract(IERC20)77": {
        "encoding": "inplace",
        "label": "contract IERC20",
        "numberOfBytes": "20"
      },
      "t_mapping(t_address,t_struct(UserPosition)676_storage)": {
        "encoding": "mapping",
        "key": "t_address",
        "label": "mapping(address => struct LendingPool.UserPosition)",
        "numberOfBytes": "32",
        "value": "t_struct(UserPosition)676_storage"
      },
      "t_struct(ReserveData)671_storage": {
        "encoding": "inplace",
        "label": "struct LendingPool.ReserveData",
        "members": [
          {
            "astId": 666,
            "contract": "project/contracts/LendingPool.sol:LendingPool",
            "label": "totalDeposits",
            "offset": 0,
            "slot": "0",
            "type": "t_uint256"
          },
          {
            "astId": 668,
            "contract": "project/contracts/LendingPool.sol:LendingPool",
            "label": "totalBorrows",
            "offset": 0,
            "slot": "1",
            "type": "t_uint256"
          },
          {
            "astId": 670,
            "contract": "project/contracts/LendingPool.sol:LendingPool",
            "label": "isActive",
            "offset": 0,
            "slot": "2",
            "type": "t_bool"
          }
        ],
        "numberOfBytes": "96"
      },
      "t_struct(UserPosition)676_storage": {
        "encoding": "inplace",
        "label": "struct LendingPool.UserPosition",
        "members": [
          {
            "astId": 673,
            "contract": "project/contracts/LendingPool.sol:LendingPool",
            "label": "collateralAmount",
            "offset": 0,
            "slot": "0",
            "type": "t_uint256"
          },
          {
            "astId": 675,
            "contract": "project/contracts/LendingPool.sol:LendingPool",
            "label": "borrowedAmount",
            "offset": 0,
            "slot": "1",
            "type": "t_uint256"
          }
        ],
        "numberOfBytes": "64"
      },
      "t_uint256": {
        "encoding": "inplace",
        "label": "uint256",
        "numberOfBytes": "32"
      }
    }
  },
  "userdoc": {
    "kind": "user",
    "methods": {
      "borrow(uint256)": {
        "notice": "Borrow asset from protocol"
      },
      "getHealthFactor(address)": {
        "notice": "Calculate health factor"
      },
      "getUserAccountData(address)": {
        "notice": "Get user account data"
      },
      "isLiquidatable(address)": {
        "notice": "Check liquidation condition"
      },
      "repay(uint256)": {
        "notice": "Repay borrowed asset"
      },
      "supply(uint256)": {
        "notice": "Supply collateral asset to protocol"
      },
      "withdraw(uint256)": {
        "notice": "Withdraw collateral asset"
      }
    },
    "version": 1
  },
  "argsData": "0x0000000000000000000000004583eee1a37084eb8022a6f6c3e00808552673cc000000000000000000000000a1e72f4fb9421db8bc65707d534b539865297405",
  "transaction": {
    "hash": "0xcc49ceac6b8d8847e4e149a9f8a3e0dbf8dbb08157ceeff4e732bb6dd38d2586",
    "nonce": "0x2",
    "origin": "0xe55d6fbfd2da1562187bbc5b874a070a490f410b"
  }
}