{
  "address": "0xc03e4b0aa5ff02b88287984ca6d99aa47cf3dbfc",
  "abi": [
    {
      "inputs": [
        {
          "internalType": "address",
          "name": "target",
          "type": "address"
        }
      ],
      "name": "AddressEmptyCode",
      "type": "error"
    },
    {
      "inputs": [
        {
          "internalType": "address",
          "name": "account",
          "type": "address"
        }
      ],
      "name": "AddressInsufficientBalance",
      "type": "error"
    },
    {
      "inputs": [],
      "name": "FailedInnerCall",
      "type": "error"
    },
    {
      "inputs": [
        {
          "internalType": "address",
          "name": "token",
          "type": "address"
        }
      ],
      "name": "SafeERC20FailedOperation",
      "type": "error"
    },
    {
      "anonymous": false,
      "inputs": [
        {
          "indexed": true,
          "internalType": "address",
          "name": "user",
          "type": "address"
        },
        {
          "indexed": true,
          "internalType": "address",
          "name": "asset",
          "type": "address"
        },
        {
          "indexed": false,
          "internalType": "uint256",
          "name": "amount",
          "type": "uint256"
        }
      ],
      "name": "Borrow",
      "type": "event"
    },
    {
      "anonymous": false,
      "inputs": [
        {
          "indexed": true,
          "internalType": "address",
          "name": "user",
          "type": "address"
        },
        {
          "indexed": true,
          "internalType": "address",
          "name": "asset",
          "type": "address"
        },
        {
          "indexed": false,
          "internalType": "uint256",
          "name": "amount",
          "type": "uint256"
        }
      ],
      "name": "Repay",
      "type": "event"
    },
    {
      "anonymous": false,
      "inputs": [
        {
          "indexed": true,
          "internalType": "address",
          "name": "user",
          "type": "address"
        },
        {
          "indexed": true,
          "internalType": "address",
          "name": "asset",
          "type": "address"
        },
        {
          "indexed": false,
          "internalType": "uint256",
          "name": "amount",
          "type": "uint256"
        }
      ],
      "name": "Supply",
      "type": "event"
    },
    {
      "anonymous": false,
      "inputs": [
        {
          "indexed": true,
          "internalType": "address",
          "name": "user",
          "type": "address"
        },
        {
          "indexed": true,
          "internalType": "address",
          "name": "asset",
          "type": "address"
        },
        {
          "indexed": false,
          "internalType": "uint256",
          "name": "amount",
          "type": "uint256"
        }
      ],
      "name": "Withdraw",
      "type": "event"
    },
    {
      "inputs": [],
      "name": "PRECISION",
      "outputs": [
        {
          "internalType": "uint256",
          "name": "",
          "type": "uint256"
        }
      ],
      "stateMutability": "view",
      "type": "function"
    },
    {
      "inputs": [],
      "name": "YEAR",
      "outputs": [
        {
          "internalType": "uint256",
          "name": "",
          "type": "uint256"
        }
      ],
      "stateMutability": "view",
      "type": "function"
    },
    {
      "inputs": [
        {
          "internalType": "address",
          "name": "asset",
          "type": "address"
        },
        {
          "internalType": "uint256",
          "name": "supplyAPY",
          "type": "uint256"
        },
        {
          "internalType": "uint256",
          "name": "borrowAPY",
          "type": "uint256"
        },
        {
          "internalType": "uint256",
          "name": "ltv",
          "type": "uint256"
        },
        {
          "internalType": "uint256",
          "name": "liquidationThreshold",
          "type": "uint256"
        }
      ],
      "name": "addReserve",
      "outputs": [],
      "stateMutability": "nonpayable",
      "type": "function"
    },
    {
      "inputs": [
        {
          "internalType": "address",
          "name": "asset",
          "type": "address"
        },
        {
          "internalType": "uint256",
          "name": "amount",
          "type": "uint256"
        }
      ],
      "name": "borrow",
      "outputs": [],
      "stateMutability": "nonpayable",
      "type": "function"
    },
    {
      "inputs": [
        {
          "internalType": "address",
          "name": "user",
          "type": "address"
        }
      ],
      "name": "getBorrowPower",
      "outputs": [
        {
          "internalType": "uint256",
          "name": "",
          "type": "uint256"
        }
      ],
      "stateMutability": "view",
      "type": "function"
    },
    {
      "inputs": [
        {
          "internalType": "address",
          "name": "user",
          "type": "address"
        }
      ],
      "name": "getHealthFactor",
      "outputs": [
        {
          "internalType": "uint256",
          "name": "",
          "type": "uint256"
        }
      ],
      "stateMutability": "view",
      "type": "function"
    },
    {
      "inputs": [
        {
          "internalType": "address",
          "name": "asset",
          "type": "address"
        }
      ],
      "name": "getReserveData",
      "outputs": [
        {
          "internalType": "uint256",
          "name": "supplied",
          "type": "uint256"
        },
        {
          "internalType": "uint256",
          "name": "borrowed",
          "type": "uint256"
        },
        {
          "internalType": "uint256",
          "name": "supplyAPY",
          "type": "uint256"
        },
        {
          "internalType": "uint256",
          "name": "borrowAPY",
          "type": "uint256"
        },
        {
          "internalType": "uint256",
          "name": "ltv",
          "type": "uint256"
        },
        {
          "internalType": "uint256",
          "name": "liquidationThreshold",
          "type": "uint256"
        },
        {
          "internalType": "uint256",
          "name": "liquidityIndex",
          "type": "uint256"
        },
        {
          "internalType": "uint256",
          "name": "borrowIndex",
          "type": "uint256"
        }
      ],
      "stateMutability": "view",
      "type": "function"
    },
    {
      "inputs": [
        {
          "internalType": "address",
          "name": "user",
          "type": "address"
        }
      ],
      "name": "getTotalCollateral",
      "outputs": [
        {
          "internalType": "uint256",
          "name": "",
          "type": "uint256"
        }
      ],
      "stateMutability": "view",
      "type": "function"
    },
    {
      "inputs": [
        {
          "internalType": "address",
          "name": "user",
          "type": "address"
        }
      ],
      "name": "getTotalDebt",
      "outputs": [
        {
          "internalType": "uint256",
          "name": "",
          "type": "uint256"
        }
      ],
      "stateMutability": "view",
      "type": "function"
    },
    {
      "inputs": [
        {
          "internalType": "address",
          "name": "user",
          "type": "address"
        }
      ],
      "name": "getUserAccountData",
      "outputs": [
        {
          "internalType": "uint256",
          "name": "totalCollateral",
          "type": "uint256"
        },
        {
          "internalType": "uint256",
          "name": "totalDebt",
          "type": "uint256"
        },
        {
          "internalType": "uint256",
          "name": "availableBorrow",
          "type": "uint256"
        },
        {
          "internalType": "uint256",
          "name": "healthFactor",
          "type": "uint256"
        }
      ],
      "stateMutability": "view",
      "type": "function"
    },
    {
      "inputs": [
        {
          "internalType": "address",
          "name": "user",
          "type": "address"
        },
        {
          "internalType": "address",
          "name": "asset",
          "type": "address"
        }
      ],
      "name": "getUserBorrow",
      "outputs": [
        {
          "internalType": "uint256",
          "name": "",
          "type": "uint256"
        }
      ],
      "stateMutability": "view",
      "type": "function"
    },
    {
      "inputs": [
        {
          "internalType": "address",
          "name": "user",
          "type": "address"
        },
        {
          "internalType": "address",
          "name": "asset",
          "type": "address"
        }
      ],
      "name": "getUserPosition",
      "outputs": [
        {
          "internalType": "uint256",
          "name": "supplied",
          "type": "uint256"
        },
        {
          "internalType": "uint256",
          "name": "borrowed",
          "type": "uint256"
        }
      ],
      "stateMutability": "view",
      "type": "function"
    },
    {
      "inputs": [
        {
          "internalType": "address",
          "name": "user",
          "type": "address"
        },
        {
          "internalType": "address",
          "name": "asset",
          "type": "address"
        }
      ],
      "name": "getUserSupply",
      "outputs": [
        {
          "internalType": "uint256",
          "name": "",
          "type": "uint256"
        }
      ],
      "stateMutability": "view",
      "type": "function"
    },
    {
      "inputs": [
        {
          "internalType": "address",
          "name": "asset",
          "type": "address"
        },
        {
          "internalType": "uint256",
          "name": "amount",
          "type": "uint256"
        }
      ],
      "name": "repay",
      "outputs": [],
      "stateMutability": "nonpayable",
      "type": "function"
    },
    {
      "inputs": [
        {
          "internalType": "uint256",
          "name": "",
          "type": "uint256"
        }
      ],
      "name": "reserveList",
      "outputs": [
        {
          "internalType": "address",
          "name": "",
          "type": "address"
        }
      ],
      "stateMutability": "view",
      "type": "function"
    },
    {
      "inputs": [
        {
          "internalType": "address",
          "name": "",
          "type": "address"
        }
      ],
      "name": "reserves",
      "outputs": [
        {
          "internalType": "uint256",
          "name": "totalSupplied",
          "type": "uint256"
        },
        {
          "internalType": "uint256",
          "name": "totalBorrowed",
          "type": "uint256"
        },
        {
          "internalType": "bool",
          "name": "isActive",
          "type": "bool"
        },
        {
          "internalType": "uint256",
          "name": "supplyAPY",
          "type": "uint256"
        },
        {
          "internalType": "uint256",
          "name": "borrowAPY",
          "type": "uint256"
        },
        {
          "internalType": "uint256",
          "name": "ltv",
          "type": "uint256"
        },
        {
          "internalType": "uint256",
          "name": "liquidationThreshold",
          "type": "uint256"
        },
        {
          "internalType": "uint256",
          "name": "liquidityIndex",
          "type": "uint256"
        },
        {
          "internalType": "uint256",
          "name": "borrowIndex",
          "type": "uint256"
        },
        {
          "internalType": "uint256",
          "name": "lastUpdateTimestamp",
          "type": "uint256"
        }
      ],
      "stateMutability": "view",
      "type": "function"
    },
    {
      "inputs": [
        {
          "internalType": "address",
          "name": "asset",
          "type": "address"
        },
        {
          "internalType": "uint256",
          "name": "amount",
          "type": "uint256"
        }
      ],
      "name": "supply",
      "outputs": [],
      "stateMutability": "nonpayable",
      "type": "function"
    },
    {
      "inputs": [
        {
          "internalType": "address",
          "name": "asset",
          "type": "address"
        }
      ],
      "name": "updateIndexes",
      "outputs": [],
      "stateMutability": "nonpayable",
      "type": "function"
    },
    {
      "inputs": [
        {
          "internalType": "address",
          "name": "asset",
          "type": "address"
        },
        {
          "internalType": "uint256",
          "name": "amount",
          "type": "uint256"
        }
      ],
      "name": "withdraw",
      "outputs": [],
      "stateMutability": "nonpayable",
      "type": "function"
    }
  ],
  "contractName": "MiniAave",
  "sourceName": "contracts/MiniAave.sol",
  "bytecode": "0x6080604052348015600e575f5ffd5b506116308061001c5f395ff3fe608060405234801561000f575f5ffd5b506004361061011c575f3560e01c8063a2253eec116100a9578063e21f0b551161006e578063e21f0b55146103fd578063ee9e836d14610410578063f2b9fdb814610423578063f3fef3a314610436578063fe6bcd7c14610449575f5ffd5b8063a2253eec146102e3578063aaf5eb68146102f6578063bf92857c14610305578063cdb5964414610338578063d66bd5241461034b575f5ffd5b806360a98b80116100ef57806360a98b801461025f578063839145401461027257806392a576e61461027d57806394df2b81146102a55780639d6030a3146102b8575f5ffd5b806322867d781461012057806335ea6a75146101355780634b8a35291461022b5780634d44ac4f1461023e575b5f5ffd5b61013361012e36600461147a565b61045c565b005b6101eb6101433660046114a2565b6001600160a01b03165f908152602081815260409182902082516101408101845281548082526001830154938201849052600283015460ff16151594820194909452600382015460608201819052600483015460808301819052600584015460a08401819052600685015460c08501819052600786015460e0860181905260088701546101008701819052600990970154610120909601959095529697959692959194909391565b604080519889526020890197909752958701949094526060860192909252608085015260a084015260c083015260e0820152610100015b60405180910390f35b61013361023936600461147a565b6105a4565b61025161024c3660046114a2565b61079e565b604051908152602001610222565b61025161026d3660046114a2565b6107f7565b6102516301e1338081565b61029061028b3660046114bb565b610849565b60408051928352602083019190915201610222565b6101336102b33660046114ec565b61086a565b6102cb6102c636600461152a565b6109cf565b6040516001600160a01b039091168152602001610222565b6101336102f13660046114a2565b6109f7565b610251670de0b6b3a764000081565b6103186103133660046114a2565b610b33565b604080519485526020850193909352918301526060820152608001610222565b6102516103463660046114bb565b610b93565b6103ad6103593660046114a2565b5f6020819052908152604090208054600182015460028301546003840154600485015460058601546006870154600788015460088901546009909901549798969760ff90961696949593949293919290918a565b604080519a8b5260208b0199909952961515978901979097526060880194909452608087019290925260a086015260c085015260e084015261010083019190915261012082015261014001610222565b61025161040b3660046114a2565b610c79565b61025161041e3660046114bb565b610d74565b61013361043136600461147a565b610e40565b61013361044436600461147a565b610fb9565b6102516104573660046114a2565b6110ec565b610465826109f7565b6001600160a01b0382165f908152602081905260408120906104873385610b93565b9050828110156104ce5760405162461bcd60e51b815260206004820152600d60248201526c494e56414c49445f524550415960981b60448201526064015b60405180910390fd5b6104e36001600160a01b038516333086611229565b60088201545f906104fc670de0b6b3a764000086611555565b610506919061156c565b335f9081526001602081815260408084206001600160a01b038b1685529091528220018054929350839290919061053e90849061158b565b9250508190555083836001015f828254610558919061158b565b90915550506040518481526001600160a01b0386169033907f05f2eeda0e08e4b437f487c8d7d29b14537d15e3488170dc3de5dbdf8dac46849060200160405180910390a35050505050565b6105ad826109f7565b6001600160a01b0382165f908152602081905260409020600281015460ff1661060b5760405162461bcd60e51b815260206004820152601060248201526f524553455256455f494e41435449564560801b60448201526064016104c5565b80548211156106555760405162461bcd60e51b8152602060048201526016602482015275494e53554646494349454e545f4c495155494449545960501b60448201526064016104c5565b5f61065f3361079e565b90505f61066b33610c79565b905080610678858461159e565b11156106c65760405162461bcd60e51b815260206004820152601760248201527f494e53554646494349454e545f434f4c4c41544552414c00000000000000000060448201526064016104c5565b60088301545f906106df670de0b6b3a764000087611555565b6106e9919061156c565b335f9081526001602081815260408084206001600160a01b038c1685529091528220018054929350839290919061072190849061159e565b9250508190555084846001015f82825461073b919061159e565b9091555061075590506001600160a01b0387163387611296565b6040518581526001600160a01b0387169033907f312a5e5e1079f5dda4e95dbbd0b908b291fd5b992ef22073643ab691572c5b52906020015b60405180910390a3505050505050565b5f80805b6002548110156107f0576107dc84600283815481106107c3576107c36115b1565b5f918252602090912001546001600160a01b0316610b93565b6107e6908361159e565b91506001016107a2565b5092915050565b5f80805b6002548110156107f057610835846002838154811061081c5761081c6115b1565b5f918252602090912001546001600160a01b0316610d74565b61083f908361159e565b91506001016107fb565b5f5f6108558484610d74565b61085f8585610b93565b915091509250929050565b6001600160a01b0385165f9081526020819052604090206002015460ff16156108c65760405162461bcd60e51b815260206004820152600e60248201526d524553455256455f45584953545360901b60448201526064016104c5565b60408051610140810182525f80825260208083018281526001848601818152606086019a8b5260808601998a5260a0860198895260c08601978852670de0b6b3a764000060e0870181815261010088019182524261012089019081526001600160a01b039e909e168088529587905297862096518755925186830155516002808701805460ff191692151592909217909155995160038601559751600485015595516005840155935160068301559151600782015592516008840155945160099092019190915582549182018355919092527f405787fa12a823e0f2b7631cc41b3ba8828b3321ca811111fa75cd3aa3bb5ace90910180546001600160a01b0319169091179055565b600281815481106109de575f80fd5b5f918252602090912001546001600160a01b0316905081565b6001600160a01b0381165f9081526020819052604081206009810154909190610a20904261158b565b9050805f03610a2e57505050565b5f610a3f6301e13380612710611555565b670de0b6b3a7640000838560030154610a589190611555565b610a629190611555565b610a6c919061156c565b90505f610a7f6301e13380612710611555565b670de0b6b3a7640000848660040154610a989190611555565b610aa29190611555565b610aac919061156c565b9050670de0b6b3a7640000828560070154610ac79190611555565b610ad1919061156c565b846007015f828254610ae3919061159e565b90915550506008840154670de0b6b3a764000090610b02908390611555565b610b0c919061156c565b846008015f828254610b1e919061159e565b90915550504260099094019390935550505050565b5f5f5f5f5f610b41866107f7565b90505f610b4d8761079e565b90505f610b5988610c79565b90505f610b65896110ec565b90508383848411610b76575f610b80565b610b80858561158b565b9199509750955093505050509193509193565b6001600160a01b038083165f908152600160208181526040808420948616808552948252808420815180830183528154815290840154818401908152958552848352818520825161014081018452815481529481015493850193909352600283015460ff161515918401919091526003820154606084015260048201546080840152600582015460a0840152600682015460c0840152600782015460e0840152600882015461010084018190526009909201546101208401529351929392670de0b6b3a764000091610c6491611555565b610c6e919061156c565b925050505b92915050565b5f80805b6002548110156107f0575f60028281548110610c9b57610c9b6115b1565b5f9182526020808320909101546001600160a01b0316808352828252604080842081516101408101835281548152600182015494810194909452600281015460ff161515918401919091526003810154606084015260048101546080840152600581015460a0840152600681015460c0840152600781015460e0840152600881015461010084015260090154610120830152925090610d3a8784610d74565b90506127108260a0015182610d4f9190611555565b610d59919061156c565b610d63908661159e565b94505060019092019150610c7d9050565b6001600160a01b038083165f90815260016020818152604080842094861680855294825280842081518083018352815481529084015481840152948452838252808420815161014081018352815481529381015492840192909252600282015460ff161515908301526003810154606083015260048101546080830152600581015460a0830152600681015460c0830152600781015460e0830181905260088201546101008401526009909101546101208301528351929392670de0b6b3a764000091610c6491611555565b610e49826109f7565b6001600160a01b0382165f908152602081905260409020600281015460ff16610ea75760405162461bcd60e51b815260206004820152601060248201526f524553455256455f494e41435449564560801b60448201526064016104c5565b5f8211610ee75760405162461bcd60e51b815260206004820152600e60248201526d1253959053125117d05353d5539560921b60448201526064016104c5565b610efc6001600160a01b038416333085611229565b60078101545f90610f15670de0b6b3a764000085611555565b610f1f919061156c565b335f9081526001602090815260408083206001600160a01b0389168452909152812080549293508392909190610f5690849061159e565b90915550508154839083905f90610f6e90849061159e565b90915550506040518381526001600160a01b0385169033907fd1cf3d156d5f8f0d50f6c122ed609cec09d35c9b9fb3fff6ea0959134dae424e9060200160405180910390a350505050565b610fc2826109f7565b6001600160a01b0382165f8181526020818152604080832033808552600184528285209585529490925282209092909190610ffd9086610d74565b9050838110156110465760405162461bcd60e51b8152602060048201526014602482015273494e53554646494349454e545f42414c414e434560601b60448201526064016104c5565b60078301545f9061105f670de0b6b3a764000087611555565b611069919061156c565b905080835f015f82825461107d919061158b565b90915550508354859085905f9061109590849061158b565b909155506110af90506001600160a01b0387163387611296565b6040518581526001600160a01b0387169033907f9b1bfa7fa9ee420a16e124f794c35ac9f90472acc99140eb2f6447c714cad8eb9060200161078e565b5f5f6110f78361079e565b9050805f0361110957505f1992915050565b5f805b600254811015611203575f6002828154811061112a5761112a6115b1565b5f9182526020808320909101546001600160a01b0316808352828252604080842081516101408101835281548152600182015494810194909452600281015460ff161515918401919091526003810154606084015260048101546080840152600581015460a0840152600681015460c0840152600781015460e08401526008810154610100840152600901546101208301529250906111c98884610d74565b90506127108260c00151826111de9190611555565b6111e8919061156c565b6111f2908661159e565b9450506001909201915061110c9050565b5081611217670de0b6b3a764000083611555565b611221919061156c565b949350505050565b6040516001600160a01b0384811660248301528381166044830152606482018390526112909186918216906323b872dd906084015b604051602081830303815290604052915060e01b6020820180516001600160e01b0383818316178352505050506112cc565b50505050565b6040516001600160a01b038381166024830152604482018390526112c791859182169063a9059cbb9060640161125e565b505050565b5f6112e06001600160a01b0384168361132d565b905080515f1415801561130457508080602001905181019061130291906115c5565b155b156112c757604051635274afe760e01b81526001600160a01b03841660048201526024016104c5565b606061133a83835f611341565b9392505050565b6060814710156113665760405163cd78605960e01b81523060048201526024016104c5565b5f5f856001600160a01b0316848660405161138191906115e4565b5f6040518083038185875af1925050503d805f81146113bb576040519150601f19603f3d011682016040523d82523d5f602084013e6113c0565b606091505b50915091506113d08683836113da565b9695505050505050565b6060826113ef576113ea82611436565b61133a565b815115801561140657506001600160a01b0384163b155b1561142f57604051639996b31560e01b81526001600160a01b03851660048201526024016104c5565b508061133a565b8051156114465780518082602001fd5b604051630a12f52160e11b815260040160405180910390fd5b80356001600160a01b0381168114611475575f5ffd5b919050565b5f5f6040838503121561148b575f5ffd5b6114948361145f565b946020939093013593505050565b5f602082840312156114b2575f5ffd5b61133a8261145f565b5f5f604083850312156114cc575f5ffd5b6114d58361145f565b91506114e36020840161145f565b90509250929050565b5f5f5f5f5f60a08688031215611500575f5ffd5b6115098661145f565b97602087013597506040870135966060810135965060800135945092505050565b5f6020828403121561153a575f5ffd5b5035919050565b634e487b7160e01b5f52601160045260245ffd5b8082028115828204841417610c7357610c73611541565b5f8261158657634e487b7160e01b5f52601260045260245ffd5b500490565b81810381811115610c7357610c73611541565b80820180821115610c7357610c73611541565b634e487b7160e01b5f52603260045260245ffd5b5f602082840312156115d5575f5ffd5b8151801515811461133a575f5ffd5b5f82518060208501845e5f92019182525091905056fea2646970667358221220e96039d34f97d5fb1fee590949961600d5b0ee1c6b2d54652eabbc4299f87ee564736f6c634300081e0033",
  "linkReferences": {},
  "deployedLinkReferences": {},
  "immutableReferences": {},
  "inputSourceName": "project/contracts/MiniAave.sol",
  "devdoc": {
    "errors": {
      "AddressEmptyCode(address)": [
        {
          "details": "There's no code at `target` (it is not a contract)."
        }
      ],
      "AddressInsufficientBalance(address)": [
        {
          "details": "The ETH balance of the account is not enough to perform the operation."
        }
      ],
      "FailedInnerCall()": [
        {
          "details": "A call to an address target failed. The target may have reverted."
        }
      ],
      "SafeERC20FailedOperation(address)": [
        {
          "details": "An operation with an ERC20 token failed."
        }
      ]
    },
    "kind": "dev",
    "methods": {},
    "version": 1
  },
  "evm": {
    "gasEstimates": {
      "creation": {
        "codeDepositCost": "1136000",
        "executionCost": "1178",
        "totalCost": "1137178"
      },
      "external": {
        "PRECISION()": "239",
        "YEAR()": "239",
        "addReserve(address,uint256,uint256,uint256,uint256)": "240588",
        "borrow(address,uint256)": "infinite",
        "getBorrowPower(address)": "infinite",
        "getHealthFactor(address)": "infinite",
        "getReserveData(address)": "21973",
        "getTotalCollateral(address)": "infinite",
        "getTotalDebt(address)": "infinite",
        "getUserAccountData(address)": "infinite",
        "getUserBorrow(address,address)": "infinite",
        "getUserPosition(address,address)": "infinite",
        "getUserSupply(address,address)": "infinite",
        "repay(address,uint256)": "infinite",
        "reserveList(uint256)": "4722",
        "reserves(address)": "21866",
        "supply(address,uint256)": "infinite",
        "updateIndexes(address)": "infinite",
        "withdraw(address,uint256)": "infinite"
      }
    }
  },
  "storageLayout": {
    "storage": [
      {
        "astId": 702,
        "contract": "project/contracts/MiniAave.sol:MiniAave",
        "label": "reserves",
        "offset": 0,
        "slot": "0",
        "type": "t_mapping(t_address,t_struct(ReserveData)691_storage)"
      },
      {
        "astId": 709,
        "contract": "project/contracts/MiniAave.sol:MiniAave",
        "label": "userPositions",
        "offset": 0,
        "slot": "1",
        "type": "t_mapping(t_address,t_mapping(t_address,t_struct(UserReserveData)696_storage))"
      },
      {
        "astId": 712,
        "contract": "project/contracts/MiniAave.sol:MiniAave",
        "label": "reserveList",
        "offset": 0,
        "slot": "2",
        "type": "t_array(t_address)dyn_storage"
      }
    ],
    "types": {
      "t_address": {
        "encoding": "inplace",
        "label": "address",
        "numberOfBytes": "20"
      },
      "t_array(t_address)dyn_storage": {
        "base": "t_address",
        "encoding": "dynamic_array",
        "label": "address[]",
        "numberOfBytes": "32"
      },
      "t_bool": {
        "encoding": "inplace",
        "label": "bool",
        "numberOfBytes": "1"
      },
      "t_mapping(t_address,t_mapping(t_address,t_struct(UserReserveData)696_storage))": {
        "encoding": "mapping",
        "key": "t_address",
        "label": "mapping(address => mapping(address => struct MiniAave.UserReserveData))",
        "numberOfBytes": "32",
        "value": "t_mapping(t_address,t_struct(UserReserveData)696_storage)"
      },
      "t_mapping(t_address,t_struct(ReserveData)691_storage)": {
        "encoding": "mapping",
        "key": "t_address",
        "label": "mapping(address => struct MiniAave.ReserveData)",
        "numberOfBytes": "32",
        "value": "t_struct(ReserveData)691_storage"
      },
      "t_mapping(t_address,t_struct(UserReserveData)696_storage)": {
        "encoding": "mapping",
        "key": "t_address",
        "label": "mapping(address => struct MiniAave.UserReserveData)",
        "numberOfBytes": "32",
        "value": "t_struct(UserReserveData)696_storage"
      },
      "t_struct(ReserveData)691_storage": {
        "encoding": "inplace",
        "label": "struct MiniAave.ReserveData",
        "members": [
          {
            "astId": 672,
            "contract": "project/contracts/MiniAave.sol:MiniAave",
            "label": "totalSupplied",
            "offset": 0,
            "slot": "0",
            "type": "t_uint256"
          },
          {
            "astId": 674,
            "contract": "project/contracts/MiniAave.sol:MiniAave",
            "label": "totalBorrowed",
            "offset": 0,
            "slot": "1",
            "type": "t_uint256"
          },
          {
            "astId": 676,
            "contract": "project/contracts/MiniAave.sol:MiniAave",
            "label": "isActive",
            "offset": 0,
            "slot": "2",
            "type": "t_bool"
          },
          {
            "astId": 678,
            "contract": "project/contracts/MiniAave.sol:MiniAave",
            "label": "supplyAPY",
            "offset": 0,
            "slot": "3",
            "type": "t_uint256"
          },
          {
            "astId": 680,
            "contract": "project/contracts/MiniAave.sol:MiniAave",
            "label": "borrowAPY",
            "offset": 0,
            "slot": "4",
            "type": "t_uint256"
          },
          {
            "astId": 682,
            "contract": "project/contracts/MiniAave.sol:MiniAave",
            "label": "ltv",
            "offset": 0,
            "slot": "5",
            "type": "t_uint256"
          },
          {
            "astId": 684,
            "contract": "project/contracts/MiniAave.sol:MiniAave",
            "label": "liquidationThreshold",
            "offset": 0,
            "slot": "6",
            "type": "t_uint256"
          },
          {
            "astId": 686,
            "contract": "project/contracts/MiniAave.sol:MiniAave",
            "label": "liquidityIndex",
            "offset": 0,
            "slot": "7",
            "type": "t_uint256"
          },
          {
            "astId": 688,
            "contract": "project/contracts/MiniAave.sol:MiniAave",
            "label": "borrowIndex",
            "offset": 0,
            "slot": "8",
            "type": "t_uint256"
          },
          {
            "astId": 690,
            "contract": "project/contracts/MiniAave.sol:MiniAave",
            "label": "lastUpdateTimestamp",
            "offset": 0,
            "slot": "9",
            "type": "t_uint256"
          }
        ],
        "numberOfBytes": "320"
      },
      "t_struct(UserReserveData)696_storage": {
        "encoding": "inplace",
        "label": "struct MiniAave.UserReserveData",
        "members": [
          {
            "astId": 693,
            "contract": "project/contracts/MiniAave.sol:MiniAave",
            "label": "scaledSupply",
            "offset": 0,
            "slot": "0",
            "type": "t_uint256"
          },
          {
            "astId": 695,
            "contract": "project/contracts/MiniAave.sol:MiniAave",
            "label": "scaledBorrow",
            "offset": 0,
            "slot": "1",
            "type": "t_uint256"
          }
        ],
        "numberOfBytes": "64"
      },
      "t_uint256": {
        "encoding": "inplace",
        "label": "uint256",
        "numberOfBytes": "32"
      }
    }
  },
  "userdoc": {
    "events": {
      "Supply(address,address,uint256)": {
        "notice": "--------------------------------------------------- EVENTS ---------------------------------------------------"
      }
    },
    "kind": "user",
    "methods": {
      "addReserve(address,uint256,uint256,uint256,uint256)": {
        "notice": "--------------------------------------------------- ADD RESERVE ---------------------------------------------------"
      },
      "borrow(address,uint256)": {
        "notice": "--------------------------------------------------- BORROW ---------------------------------------------------"
      },
      "getBorrowPower(address)": {
        "notice": "--------------------------------------------------- BORROW POWER ---------------------------------------------------"
      },
      "getHealthFactor(address)": {
        "notice": "--------------------------------------------------- HEALTH FACTOR ---------------------------------------------------"
      },
      "getReserveData(address)": {
        "notice": "--------------------------------------------------- RESERVE DATA ---------------------------------------------------"
      },
      "getTotalCollateral(address)": {
        "notice": "--------------------------------------------------- TOTAL COLLATERAL ---------------------------------------------------"
      },
      "getTotalDebt(address)": {
        "notice": "--------------------------------------------------- TOTAL DEBT ---------------------------------------------------"
      },
      "getUserAccountData(address)": {
        "notice": "--------------------------------------------------- ACCOUNT DATA ---------------------------------------------------"
      },
      "getUserBorrow(address,address)": {
        "notice": "--------------------------------------------------- USER BORROW ---------------------------------------------------"
      },
      "getUserPosition(address,address)": {
        "notice": "--------------------------------------------------- USER POSITION ---------------------------------------------------"
      },
      "getUserSupply(address,address)": {
        "notice": "--------------------------------------------------- USER SUPPLY ---------------------------------------------------"
      },
      "repay(address,uint256)": {
        "notice": "--------------------------------------------------- REPAY ---------------------------------------------------"
      },
      "reserves(address)": {
        "notice": "--------------------------------------------------- STORAGE ---------------------------------------------------"
      },
      "supply(address,uint256)": {
        "notice": "--------------------------------------------------- SUPPLY ---------------------------------------------------"
      },
      "updateIndexes(address)": {
        "notice": "--------------------------------------------------- UPDATE INDEXES ---------------------------------------------------"
      },
      "withdraw(address,uint256)": {
        "notice": "--------------------------------------------------- WITHDRAW ---------------------------------------------------"
      }
    },
    "version": 1
  },
  "argsData": "0x",
  "transaction": {
    "hash": "0xd39f6cea9e018460db61dc83deba2d4a15e9e080668db67f77cf0d48c7ba1165",
    "nonce": "0xf",
    "origin": "0xe55d6fbfd2da1562187bbc5b874a070a490f410b"
  }
}